{
  "_format": "hh-sol-artifact-1",
  "contractName": "Voting",
  "sourceName": "contracts/Voting.sol",
  "abi": [
    {
      "inputs": [
        {
          "internalType": "string[]",
          "name": "candidateNames",
          "type": "string[]"
        }
      ],
      "stateMutability": "nonpayable",
      "type": "constructor"
    },
    {
      "inputs": [],
      "name": "candidateCount",
      "outputs": [
        {
          "internalType": "uint256",
          "name": "",
          "type": "uint256"
        }
      ],
      "stateMutability": "view",
      "type": "function"
    },
    {
      "inputs": [
        {
          "internalType": "uint256",
          "name": "",
          "type": "uint256"
        }
      ],
      "name": "candidates",
      "outputs": [
        {
          "internalType": "string",
          "name": "",
          "type": "string"
        }
      ],
      "stateMutability": "view",
      "type": "function"
    },
    {
      "inputs": [
        {
          "internalType": "address",
          "name": "voter",
          "type": "address"
        }
      ],
      "name": "hasVoted",
      "outputs": [
        {
          "internalType": "bool",
          "name": "",
          "type": "bool"
        }
      ],
      "stateMutability": "view",
      "type": "function"
    },
    {
      "inputs": [
        {
          "internalType": "uint256",
          "name": "candidateId",
          "type": "uint256"
        }
      ],
      "name": "vote",
      "outputs": [],
      "stateMutability": "nonpayable",
      "type": "function"
    },
    {
      "inputs": [
        {
          "internalType": "uint256",
          "name": "",
          "type": "uint256"
        }
      ],
      "name": "votes",
      "outputs": [
        {
          "internalType": "uint256",
          "name": "",
          "type": "uint256"
        }
      ],
      "stateMutability": "view",
      "type": "function"
    }
  ],
  "bytecode": "0x60806040523480156200001157600080fd5b5060405162000fc238038062000fc283398181016040528101906200003791906200034a565b60005b8151811015620000b3578181815181106200005a57620000596200039b565b5b6020026020010151600080838152602001908152602001600020908162000082919062000615565b506003600081548092919062000098906200072b565b91905055508080620000aa906200072b565b9150506200003a565b505062000778565b6000604051905090565b600080fd5b600080fd5b600080fd5b6000601f19601f8301169050919050565b7f4e487b7100000000000000000000000000000000000000000000000000000000600052604160045260246000fd5b6200011f82620000d4565b810181811067ffffffffffffffff82111715620001415762000140620000e5565b5b80604052505050565b600062000156620000bb565b905062000164828262000114565b919050565b600067ffffffffffffffff821115620001875762000186620000e5565b5b602082029050602081019050919050565b600080fd5b600080fd5b600067ffffffffffffffff821115620001c057620001bf620000e5565b5b620001cb82620000d4565b9050602081019050919050565b60005b83811015620001f8578082015181840152602081019050620001db565b60008484015250505050565b60006200021b6200021584620001a2565b6200014a565b9050828152602081018484840111156200023a57620002396200019d565b5b62000247848285620001d8565b509392505050565b600082601f830112620002675762000266620000cf565b5b81516200027984826020860162000204565b91505092915050565b600062000299620002938462000169565b6200014a565b90508083825260208201905060208402830185811115620002bf57620002be62000198565b5b835b818110156200030d57805167ffffffffffffffff811115620002e857620002e7620000cf565b5b808601620002f789826200024f565b85526020850194505050602081019050620002c1565b5050509392505050565b600082601f8301126200032f576200032e620000cf565b5b81516200034184826020860162000282565b91505092915050565b600060208284031215620003635762000362620000c5565b5b600082015167ffffffffffffffff811115620003845762000383620000ca565b5b620003928482850162000317565b91505092915050565b7f4e487b7100000000000000000000000000000000000000000000000000000000600052603260045260246000fd5b600081519050919050565b7f4e487b7100000000000000000000000000000000000000000000000000000000600052602260045260246000fd5b600060028204905060018216806200041d57607f821691505b602082108103620004335762000432620003d5565b5b50919050565b60008190508160005260206000209050919050565b60006020601f8301049050919050565b600082821b905092915050565b6000600883026200049d7fffffffffffffffffffffffffffffffffffffffffffffffffffffffffffffffff826200045e565b620004a986836200045e565b95508019841693508086168417925050509392505050565b6000819050919050565b6000819050919050565b6000620004f6620004f0620004ea84620004c1565b620004cb565b620004c1565b9050919050565b6000819050919050565b6200051283620004d5565b6200052a6200052182620004fd565b8484546200046b565b825550505050565b600090565b6200054162000532565b6200054e81848462000507565b505050565b5b8181101562000576576200056a60008262000537565b60018101905062000554565b5050565b601f821115620005c5576200058f8162000439565b6200059a846200044e565b81016020851015620005aa578190505b620005c2620005b9856200044e565b83018262000553565b50505b505050565b600082821c905092915050565b6000620005ea60001984600802620005ca565b1980831691505092915050565b6000620006058383620005d7565b9150826002028217905092915050565b6200062082620003ca565b67ffffffffffffffff8111156200063c576200063b620000e5565b5b62000648825462000404565b620006558282856200057a565b600060209050601f8311600181146200068d576000841562000678578287015190505b620006848582620005f7565b865550620006f4565b601f1984166200069d8662000439565b60005b82811015620006c757848901518255600182019150602085019450602081019050620006a0565b86831015620006e75784890151620006e3601f891682620005d7565b8355505b6001600288020188555050505b505050505050565b7f4e487b7100000000000000000000000000000000000000000000000000000000600052601160045260246000fd5b60006200073882620004c1565b91507fffffffffffffffffffffffffffffffffffffffffffffffffffffffffffffffff82036200076d576200076c620006fc565b5b600182019050919050565b61083a80620007886000396000f3fe608060405234801561001057600080fd5b50600436106100575760003560e01c80630121b93f1461005c57806309eef43e146100785780633477ee2e146100a85780635df81330146100d8578063a9a981a314610108575b600080fd5b6100766004803603810190610071919061041f565b610126565b005b610092600480360381019061008d91906104aa565b6102d0565b60405161009f91906104f2565b60405180910390f35b6100c260048036038101906100bd919061041f565b610326565b6040516100cf919061059d565b60405180910390f35b6100f260048036038101906100ed919061041f565b6103c6565b6040516100ff91906105ce565b60405180910390f35b6101106103de565b60405161011d91906105ce565b60405180910390f35b600354811061016a576040517f08c379a000000000000000000000000000000000000000000000000000000000815260040161016190610635565b60405180910390fd5b600260003373ffffffffffffffffffffffffffffffffffffffff1673ffffffffffffffffffffffffffffffffffffffff16815260200190815260200160002060009054906101000a900460ff16156101f7576040517f08c379a00000000000000000000000000000000000000000000000000000000081526004016101ee906106a1565b60405180910390fd5b60006004541461023c576040517f08c379a00000000000000000000000000000000000000000000000000000000081526004016102339061070d565b60405180910390fd5b60016004819055506001600082815260200190815260200160002060008154809291906102689061075c565b91905055506001600260003373ffffffffffffffffffffffffffffffffffffffff1673ffffffffffffffffffffffffffffffffffffffff16815260200190815260200160002060006101000a81548160ff021916908315150217905550600060048190555050565b6000600260008373ffffffffffffffffffffffffffffffffffffffff1673ffffffffffffffffffffffffffffffffffffffff16815260200190815260200160002060009054906101000a900460ff169050919050565b60006020528060005260406000206000915090508054610345906107d3565b80601f0160208091040260200160405190810160405280929190818152602001828054610371906107d3565b80156103be5780601f10610393576101008083540402835291602001916103be565b820191906000526020600020905b8154815290600101906020018083116103a157829003601f168201915b505050505081565b60016020528060005260406000206000915090505481565b60035481565b600080fd5b6000819050919050565b6103fc816103e9565b811461040757600080fd5b50565b600081359050610419816103f3565b92915050565b600060208284031215610435576104346103e4565b5b60006104438482850161040a565b91505092915050565b600073ffffffffffffffffffffffffffffffffffffffff82169050919050565b60006104778261044c565b9050919050565b6104878161046c565b811461049257600080fd5b50565b6000813590506104a48161047e565b92915050565b6000602082840312156104c0576104bf6103e4565b5b60006104ce84828501610495565b91505092915050565b60008115159050919050565b6104ec816104d7565b82525050565b600060208201905061050760008301846104e3565b92915050565b600081519050919050565b600082825260208201905092915050565b60005b8381101561054757808201518184015260208101905061052c565b60008484015250505050565b6000601f19601f8301169050919050565b600061056f8261050d565b6105798185610518565b9350610589818560208601610529565b61059281610553565b840191505092915050565b600060208201905081810360008301526105b78184610564565b905092915050565b6105c8816103e9565b82525050565b60006020820190506105e360008301846105bf565b92915050565b7f496e76616c69642063616e646964617465204944000000000000000000000000600082015250565b600061061f601483610518565b915061062a826105e9565b602082019050919050565b6000602082019050818103600083015261064e81610612565b9050919050565b7f596f75206861766520616c726561647920766f74656400000000000000000000600082015250565b600061068b601683610518565b915061069682610655565b602082019050919050565b600060208201905081810360008301526106ba8161067e565b9050919050565b7f5265656e7472616e742063616c6c206465746563746564000000000000000000600082015250565b60006106f7601783610518565b9150610702826106c1565b602082019050919050565b60006020820190508181036000830152610726816106ea565b9050919050565b7f4e487b7100000000000000000000000000000000000000000000000000000000600052601160045260246000fd5b6000610767826103e9565b91507fffffffffffffffffffffffffffffffffffffffffffffffffffffffffffffffff82036107995761079861072d565b5b600182019050919050565b7f4e487b7100000000000000000000000000000000000000000000000000000000600052602260045260246000fd5b600060028204905060018216806107eb57607f821691505b6020821081036107fe576107fd6107a4565b5b5091905056fea2646970667358221220a04f7bd45cfb2d7ad23d63f70054445d2e5e3d888a5dd2cbbe616199c957f03d64736f6c63430008140033",
  "linkReferences": {},
  "deployedLinkReferences": {}
}